:02000000BF2A15
:10000800FF00030E83018316DC000A08DD008A0165
:100018008B1C18288312061C162888120130E80049
:100028000030E9008B102A280B1C2A288312061E90
:10003800222888160130EE000030EF00061A292821
:1000480088120130EA000030EB000B1083165D08BF
:0C0058008A005C0E8300FF0E7F0E090082
:0C00640000000000000000000000080088
:10007000243083120313FC00B530FD00FD0B3E2835
:0A008000FC0B3E2800000000080001
:0E008A00533083120313FD00FD0B49280800BC
:08009800FA1FF213003008000A
:1000A0007B15FB1F5A280130F300F201F101F0012A
:0800B000FA0DF20CFF3008000C
:0E00B800F201F101F001F801F301003008003F
:1000C60083160313E31B6A28831287136C28831293
:1000D60087178316631B72288312071374288312EB
:1000E60007178316E31A7A28831287127C2883124D
:1000F60087168316631A82288312071284288312AE
:100106000716831654188A28831207158C2883121B
:1001160007118715322087118316E3199528831254
:100126008713972883128717831663199D288312CE
:1001360007139F28831207178316E318A52883122F
:100146008712A7288312871683166318AD28831291
:100156000712AF288312071683165418B528831280
:100166000715B728831207118715322087118316C2
:0C017600541CBF283820C0284520080079
:10018200FB14FB1FCB28FF30F300F200F100F0005C
:08019200FA0DF20CFF30080029
:0E019A00831203136D088A006C0882000800AF
:0601A800FB15FF3008000A
:1001AE00A0017208031DEC287108F2007008F1001E
:1001BE00F001A0157208031DEC287108F200F10180
:1001CE00A011201672080319FA282008F302031D45
:1001DE00031CFE280310F21B0229F00DF10DF20D87
:1001EE00F30BF228FE280130FC005C2005290230BA
:0E01FE00FC00502005290430FC004C200800B5
:10020C00243083120313FD00FD0B0A2900000800A3
:10021C008316031354106208E300632083165414EE
:02022C000800C8
:10022E00831203137408003A031D32297508003A2D
:10023E00031D32297608003A031D32297708003A49
:10024E00031D3229FF30F000FF30F1007F30F20045
:10025E00FF30F300CD298312031377080319C12948
:10026E0073080319C429720876068039FA00F2174A
:10027E00F617A0017208F8007108FC007008FD0066
:10028E007408FD027508031C750FFC027608031C2A
:10029E00760FF802F801FC01FD01031C5D29031025
:1002AE00F20CF10CF00CF80C0130A0007708F30200
:1002BE00031C67297E302007F3070318C7296C2912
:1002CE007E302007F307031CCA291830FA07FD0DEC
:1002DE00FC0DF80DF00DF10DF20DA00D7408F002ED
:1002EE007508031C750FF1027608031C760FF202D7
:1002FE00760DA004201C85297D1490297408F00722
:10030E0075080318750FF10776080318760AF207B9
:10031E007D10FA031F307A05031D6E297B1B7D1C91
:10032E00B7290310F00DF10DF20DA00D7408F002B7
:10033E007508031C750FF1027608031C760FF20286
:10034E00760D20040139FD070318FC0A0319F80A7B
:10035E00031DB729F80CFC0CFD0CF30A0319C72971
:10036E00FA1FF8137808F2007C08F1007D08F000FF
:10037E000030CC290130D420CC2902305C20CC298D
:0E038E000430C120CC290830502000000800A7
:10039C00E029803083160313DE00F329C030DE0021
:1003AC00F3299430DE00F329D430DE00F3298030B9
:1003BC00DE00F329831603135E08013A0319CF29D3
:1003CC005E08023A0319D4295E08033A0319D729A7
:1003DC005E08043A0319DA29DD295F03F0005E0890
:1003EC00F0077008DE007008E300632083165410D9
:1003FC00E101610860078400000803190D2A6108F7
:10040C00600784000008E2000E21E10AFF29541461
:02041C000800D6
:10041E00831203137008F8007108F000F101F20165
:10042E00F301FB01FC019630F300FA017008F100B4
:0C043E007808F000F801F201D720080057
:10044A00831203139F01C0309F044709F00070080C
:10045A0083169F051F179F175E08F000F00D701096
:10046A00F00D7010F00D7010700883129F041F14A5
:10047A0006211F151F1D432A00003F2A1F101E08B0
:10048A00F100F00183161E08F0040030F1040800A0
:10049A00831603138711071107128712071387138D
:1004AA00831287110711871307138712071238203F
:1004BA0038203820871607168715322087113820EA
:1004CA008715322087113820871532208711382066
:1004DA000712871532208711382087153220871195
:1004EA008712871787153220871138208713071636
:1004FA008715322087110712871532208711382075
:10050A008715322087110716871532208711382060
:10051A0007128715322087118717071787160716BC
:0E052A008715322087113820831654140800DC
:10053800FF3083160313D500FF30D600FF30D700F5
:10054800FF3083129F01C0309F044709F0007008F4
:0E05580083169F051F179F1783121F1408009C
:10056600CD208A110A128000840AEC0A0319ED0ACA
:08057600F003031DB32A080085
:10057E000E249C22FF308316860088018B178B1564
:10058E000B1601178312EA01EB01E801E901EE01F6
:10059E00EF0188124D220130E300632002308316F2
:1005AE00DE000330DF002530E000CE219C228316D2
:1005BE00DE0125220F227008A1007108A200720828
:1005CE00A3007308A4003330F4003330F500233059
:1005DE00F6008230F700172170088316D8007108D4
:1005EE00D9007208DA007308DB00003083126F0640
:1005FE00031D032B01306E06031D142B01308316D1
:10060E00E300632002308316DE000130DF00A030ED
:10061E00E000CE218312EE01EF0100306B06031DC8
:10062E001A2B01306A06031D2B2B01308316E300B3
:10063E00632002308316DE000130DF005530E0000B
:10064E00CE218312EA01EB0100306906031D312B26
:10065E0001306806031D5B2B01308316E300632017
:10066E0002308316DE000130DF00CB30E000CE21F9
:10067E008312E801E9010D30FB00AF30FC00B6300B
:10068E00FD00FD0B482BFC0B482BFB0B482B0000F1
:10069E0001308316E300632002308316DE00013042
:1006AE00DF00BE30E000CE21DE2AFD0B5C2BFC0B02
:1006BE005C2BFB0B5C2B00008C2B8316FD0B642B31
:1006CE00FC0B642BFB0B642B00000130E30063205A
:1006DE0002308316DE000130DF003A30E000CE211A
:1006EE001A30FB005E30FC006E30FD00FD0B7D2BE2
:1006FE00FC0B7D2BFB0B7D2B00008C2BFD0B852B20
:0C070E00FC0B852BFB0B852B00008C2BBB
:10081C0021308400473083120313F0009230EC0037
:10082C000330ED00B322A030840034308312031364
:0E083C00F000D930EC000330ED00B3220800CC
:080724000034003400340034FD
:10072C0053344D34413452345434203447344134EE
:0A073C005234443445344E34003486
:040746000034003447
:0C074A00503461346E346E346534003479
:1007560053346D3461347234743420344734613424
:0A0766007234643465346E340034DC
:020770000F3444
:10077200463469346E3420344134723472346F3406
:0A07820073346134673465340034C9
:10078C00463469346E3420344134723472346F34EC
:10079C0073346134673465342034473461347A34CB
:0607AC006F346E340034CE
:1007B2004134723472346F34733461346734653463
:0E07C2002034473461347A346F346E3400349E
:1007D0004134723472346F34733461346734653445
:0E07E0002034473461347A346F346E34003480
:1007EE0053346D346134723474342034473461348C
:0A07FE007234643465346E34003444
:1008080050346C34753469346534203421342134DF
:020818000034AA
:02400E007A3BFB
:00000001FF
